{
  "contractName": "MLM",
  "abi": [
    {
      "inputs": [
        {
          "internalType": "address",
          "name": "_coin",
          "type": "address"
        }
      ],
      "stateMutability": "nonpayable",
      "type": "constructor"
    },
    {
      "anonymous": false,
      "inputs": [
        {
          "indexed": true,
          "internalType": "address",
          "name": "previousOwner",
          "type": "address"
        },
        {
          "indexed": true,
          "internalType": "address",
          "name": "newOwner",
          "type": "address"
        }
      ],
      "name": "OwnershipTransferred",
      "type": "event"
    },
    {
      "inputs": [
        {
          "internalType": "address",
          "name": "referrer",
          "type": "address"
        }
      ],
      "name": "buyTicket",
      "outputs": [],
      "stateMutability": "nonpayable",
      "type": "function"
    },
    {
      "inputs": [
        {
          "internalType": "address",
          "name": "_wallet",
          "type": "address"
        }
      ],
      "name": "changeCommissionWallet",
      "outputs": [],
      "stateMutability": "nonpayable",
      "type": "function"
    },
    {
      "inputs": [
        {
          "internalType": "address",
          "name": "_wallet",
          "type": "address"
        }
      ],
      "name": "changeReceiptWallet",
      "outputs": [],
      "stateMutability": "nonpayable",
      "type": "function"
    },
    {
      "inputs": [],
      "name": "commissionWallet",
      "outputs": [
        {
          "internalType": "address",
          "name": "",
          "type": "address"
        }
      ],
      "stateMutability": "view",
      "type": "function"
    },
    {
      "inputs": [
        {
          "internalType": "address",
          "name": "_user",
          "type": "address"
        }
      ],
      "name": "getUser",
      "outputs": [
        {
          "internalType": "bool",
          "name": "registered",
          "type": "bool"
        },
        {
          "internalType": "address",
          "name": "referrer",
          "type": "address"
        },
        {
          "internalType": "uint256",
          "name": "referralCommission",
          "type": "uint256"
        },
        {
          "internalType": "uint256",
          "name": "withdrawnReward",
          "type": "uint256"
        },
        {
          "internalType": "uint256[5]",
          "name": "referralsCount",
          "type": "uint256[5]"
        }
      ],
      "stateMutability": "view",
      "type": "function"
    },
    {
      "inputs": [],
      "name": "owner",
      "outputs": [
        {
          "internalType": "address",
          "name": "",
          "type": "address"
        }
      ],
      "stateMutability": "view",
      "type": "function"
    },
    {
      "inputs": [],
      "name": "receiptWallet",
      "outputs": [
        {
          "internalType": "address",
          "name": "",
          "type": "address"
        }
      ],
      "stateMutability": "view",
      "type": "function"
    },
    {
      "inputs": [],
      "name": "renounceOwnership",
      "outputs": [],
      "stateMutability": "nonpayable",
      "type": "function"
    },
    {
      "inputs": [],
      "name": "totalRest",
      "outputs": [
        {
          "internalType": "uint256",
          "name": "",
          "type": "uint256"
        }
      ],
      "stateMutability": "view",
      "type": "function"
    },
    {
      "inputs": [
        {
          "internalType": "address",
          "name": "newOwner",
          "type": "address"
        }
      ],
      "name": "transferOwnership",
      "outputs": [],
      "stateMutability": "nonpayable",
      "type": "function"
    },
    {
      "inputs": [
        {
          "internalType": "address",
          "name": "",
          "type": "address"
        }
      ],
      "name": "users",
      "outputs": [
        {
          "internalType": "bool",
          "name": "registered",
          "type": "bool"
        },
        {
          "internalType": "address",
          "name": "referrer",
          "type": "address"
        },
        {
          "internalType": "uint256",
          "name": "referralCommission",
          "type": "uint256"
        },
        {
          "internalType": "uint256",
          "name": "withdrawnReward",
          "type": "uint256"
        }
      ],
      "stateMutability": "view",
      "type": "function"
    },
    {
      "inputs": [],
      "name": "withdrawForRecipient",
      "outputs": [],
      "stateMutability": "nonpayable",
      "type": "function"
    },
    {
      "inputs": [],
      "name": "withdrawReward",
      "outputs": [],
      "stateMutability": "nonpayable",
      "type": "function"
    }
  ],
  "bytecode": "0x60806040526002805473712ab74e796f2c79ee53f3405f4e8d6c30e175ef6001600160a01b0319918216811790925560038054909116909117905534801561004657600080fd5b50d3801561005357600080fd5b50d2801561006057600080fd5b506040516111da3803806111da83398101604081905261007f9161010c565b61008f61008a6100b8565b6100bc565b60018055600480546001600160a01b0319166001600160a01b0392909216919091179055610143565b3390565b600080546001600160a01b038381166001600160a01b0319831681178455604051919092169283917f8be0079c531659141344cd1fd0a4f28419497f9722a3daafe3b4186f6b6457e09190a35050565b60006020828403121561011d578081fd5b81516001600160a81b0381168114610133578182fd5b6001600160a01b03169392505050565b611088806101526000396000f3fe608060405234801561001057600080fd5b50d3801561001d57600080fd5b50d2801561002a57600080fd5b50600436106100e95760003560e01c806392a70c86116100a6578063a87430ba11610080578063a87430ba14610198578063c885bc58146101bb578063f2fde38b146101c3578063f469936c146101d6576100e9565b806392a70c861461016a57806397c0262a1461017d578063a5f8cdbb14610185576100e9565b80632b1e992c146100ee5780636f77926b14610103578063715018a614610130578063745d96ff1461013857806379ad6a6f1461014d5780638da5cb5b14610162575b600080fd5b6101016100fc366004610bf7565b6101de565b005b610116610111366004610bf7565b610200565b604051610127959493929190610cf9565b60405180910390f35b6101016102c5565b610140610319565b6040516101279190610f5e565b61015561031f565b6040516101279190610c82565b61015561032e565b610101610178366004610bf7565b61033d565b61015561035f565b610101610193366004610bf7565b61036e565b6101ab6101a6366004610bf7565b610421565b6040516101279493929190610cd3565b610101610455565b6101016101d1366004610bf7565b6104fe565b61010161056f565b600280546001600160a01b0319166001600160a01b0392909216919091179055565b60008060008061020e610bd9565b6001600160a01b0380871660009081526005602052604081208054600182015460029092015460ff82169950610100909104909316965094509092505b60058160ff1610156102bb576001600160a01b038716600090815260056020818152604080842060ff861680865260039091019092529092205491849181106102a457634e487b7160e01b600052603260045260246000fd5b6020020152806102b38161101c565b91505061024b565b5091939590929450565b6102cd61063c565b6001600160a01b03166102de61032e565b6001600160a01b03161461030d5760405162461bcd60e51b815260040161030490610e71565b60405180910390fd5b6103176000610640565b565b60065481565b6003546001600160a01b031681565b6000546001600160a01b031690565b600380546001600160a01b0319166001600160a01b0392909216919091179055565b6002546001600160a01b031681565b60045461038a906001600160a01b0316333063017d7840610690565b6002546004546103ac916001600160a01b0391821691339116623d0900610690565b6001600160a01b038116156103d0576103cb8163017d784060006106ee565b6103ec565b63017d7840600660008282546103e69190610f67565b90915550505b33600090815260056020526040902080546001600160a01b0390921661010002610100600160a81b0319909216919091179055565b60056020526000908152604090208054600182015460029092015460ff8216926101009092046001600160a01b0316919084565b600260015414156104785760405162461bcd60e51b815260040161030490610f27565b6002600181815533600090815260056020526040812092830154929091015490916104a291610fbe565b9050600081116104c45760405162461bcd60e51b815260040161030490610e4e565b6004546104db906001600160a01b031633836109d8565b503360009081526005602052604090206001808201546002909201919091558055565b61050661063c565b6001600160a01b031661051761032e565b6001600160a01b03161461053d5760405162461bcd60e51b815260040161030490610e71565b6001600160a01b0381166105635760405162461bcd60e51b815260040161030490610dc2565b61056c81610640565b50565b6003546001600160a01b031633146105995760405162461bcd60e51b815260040161030490610d8b565b600354600480546040516370a0823160e01b8152610635936001600160a01b03908116939216916370a08231916105d291309101610c82565b60206040518083038186803b1580156105ea57600080fd5b505afa1580156105fe573d6000803e3d6000fd5b505050506040513d601f19601f820116820180604052508101906106229190610c4e565b6004546001600160a01b031691906109d8565b6000600655565b3390565b600080546001600160a01b038381166001600160a01b0319831681178455604051919092169283917f8be0079c531659141344cd1fd0a4f28419497f9722a3daafe3b4186f6b6457e09190a35050565b6106e8846323b872dd60e01b8585856040516024016106b193929190610c96565b60408051601f198184030181529190526020810180516001600160e01b03166001600160e01b0319909316929092179091526109f7565b50505050565b60048160ff16111561071757816006600082825461070c9190610f67565b909155506109d39050565b61072082610a86565b6001600160a01b0384166000908152600560205260408120600101805490919061074b908490610f67565b90915550506001600160a01b038316600090815260056020908152604080832060ff85168452600301909152812080549161078583611001565b909155505060ff8116610931576001600160a01b038316600090815260056020908152604080832060ff851684526003019091529020546101f41161082357612710600654111561081e576001600160a01b0383166000908152600560205260408120600101805461271092906107fd908490610f67565b92505081905550612710600660008282546108189190610fbe565b90915550505b610931565b6001600160a01b038316600090815260056020908152604080832060ff8516845260030190915290205461012c116108a9576101f4600654111561081e576001600160a01b038316600090815260056020526040812060010180546101f4929061088e908490610f67565b925050819055506101f4600660008282546108189190610fbe565b6001600160a01b038316600090815260056020908152604080832060ff851684526003019091529020546064116109315760646006541115610931576001600160a01b0383166000908152600560205260408120600101805460649290610911908490610f67565b9250508190555060646006600082825461092b9190610fbe565b90915550505b8061093b8161101c565b6001600160a01b03858116600090815260056020526040902054919350610100909104161590506109a9576001600160a01b038084166000908152600560205260409020546109a4916101009091041661099484610a86565b61099e9085610fbe565b836106ee565b6109d3565b6109b282610a86565b6109bc9083610fbe565b600660008282546109cd9190610f67565b90915550505b505050565b6109d38363a9059cbb60e01b84846040516024016106b1929190610cba565b6000610a4c826040518060400160405280602081526020017f5361666545524332303a206c6f772d6c6576656c2063616c6c206661696c6564815250856001600160a01b0316610ac19092919063ffffffff16565b8051909150156109d35780806020019051810190610a6a9190610c2e565b6109d35760405162461bcd60e51b815260040161030490610edd565b6000610a95620f424083610f7f565b9150610aa2600283610f7f565b610aac9083610fbe565b9050610abb620f424082610f9f565b92915050565b6060610ad08484600085610ada565b90505b9392505050565b606082471015610afc5760405162461bcd60e51b815260040161030490610e08565b610b0585610b9a565b610b215760405162461bcd60e51b815260040161030490610ea6565b600080866001600160a01b03168587604051610b3d9190610c66565b60006040518083038185875af1925050503d8060008114610b7a576040519150601f19603f3d011682016040523d82523d6000602084013e610b7f565b606091505b5091509150610b8f828286610ba0565b979650505050505050565b3b151590565b60608315610baf575081610ad3565b825115610bbf5782518084602001fd5b8160405162461bcd60e51b81526004016103049190610d58565b6040518060a001604052806005906020820280368337509192915050565b600060208284031215610c08578081fd5b81356001600160a81b0381168114610c1e578182fd5b6001600160a01b03169392505050565b600060208284031215610c3f578081fd5b81518015158114610ad3578182fd5b600060208284031215610c5f578081fd5b5051919050565b60008251610c78818460208701610fd5565b9190910192915050565b6001600160a01b0391909116815260200190565b6001600160a01b039384168152919092166020820152604081019190915260600190565b6001600160a01b03929092168252602082015260400190565b93151584526001600160a01b039290921660208401526040830152606082015260800190565b85151581526001600160a01b0385166020808301919091526040820185905260608201849052610120820190608083018460005b6005811015610d4a57815183529183019190830190600101610d2d565b505050509695505050505050565b6000602082528251806020840152610d77816040850160208701610fd5565b601f01601f19169190910160400192915050565b6020808252601d908201527f54686973206973206e6f74206120726563656970742077616c6c65742e000000604082015260600190565b60208082526026908201527f4f776e61626c653a206e6577206f776e657220697320746865207a65726f206160408201526564647265737360d01b606082015260800190565b60208082526026908201527f416464726573733a20696e73756666696369656e742062616c616e636520666f6040820152651c8818d85b1b60d21b606082015260800190565b6020808252600990820152681b9bc81c995dd85c9960ba1b604082015260600190565b6020808252818101527f4f776e61626c653a2063616c6c6572206973206e6f7420746865206f776e6572604082015260600190565b6020808252601d908201527f416464726573733a2063616c6c20746f206e6f6e2d636f6e7472616374000000604082015260600190565b6020808252602a908201527f5361666545524332303a204552433230206f7065726174696f6e20646964206e6040820152691bdd081cdd58d8d9595960b21b606082015260800190565b6020808252601f908201527f5265656e7472616e637947756172643a207265656e7472616e742063616c6c00604082015260600190565b90815260200190565b60008219821115610f7a57610f7a61103c565b500190565b600082610f9a57634e487b7160e01b81526012600452602481fd5b500490565b6000816000190483118215151615610fb957610fb961103c565b500290565b600082821015610fd057610fd061103c565b500390565b60005b83811015610ff0578181015183820152602001610fd8565b838111156106e85750506000910152565b60006000198214156110155761101561103c565b5060010190565b600060ff821660ff8114156110335761103361103c565b60010192915050565b634e487b7160e01b600052601160045260246000fdfea26469706673582212208123ba7485bc724acefba83b73c7034388f1e2d471bbb015254fbd2ec2fb47cd64736f6c63430008000033",
  "source": "// SPDX-License-Identifier: MIT\npragma solidity ^0.8.0;\n\nimport \"@openzeppelin/contracts/access/Ownable.sol\";\nimport \"@openzeppelin/contracts/token/ERC20/IERC20.sol\";\nimport \"@openzeppelin/contracts/token/ERC20/utils/SafeERC20.sol\";\nimport \"@openzeppelin/contracts/security/ReentrancyGuard.sol\";\n\ncontract MLM is Ownable, ReentrancyGuard {\n\n    using SafeERC20 for IERC20;\n    address public commissionWallet = 0x712ab74e796f2C79Ee53F3405F4E8d6c30e175eF;\n    address public receiptWallet = 0x712ab74e796f2C79Ee53F3405F4E8d6c30e175eF;\n\n    IERC20 coin;\n\n    modifier isReceiptWallet() {\n        require((msg.sender == receiptWallet), \"This is not a receipt wallet.\");\n        _;\n    }\n    \n    constructor(address _coin) Ownable() ReentrancyGuard() {\n        coin = IERC20(_coin);\n    }\n    struct User {\n        bool registered; // Flag to check if the user is registered\n        address referrer;\n        // uint256 balance;\n        uint256 referralCommission;\n        uint256 withdrawnReward;\n        mapping(uint8=>uint256) referralsCount;\n    }\n    mapping(address=>User) public users;\n    uint256 public totalRest;\n    function buyTicket(address referrer) external {\n        // require(!users[msg.sender].registered, \"Already bought\");\n        IERC20(coin).safeTransferFrom(msg.sender, address(this), 25*(10**6));\n        // uint40 aa = uint40(0x41712ab74e796f2C79Ee53F3405F4E8d6c30e175eF);\n\n        IERC20(coin).safeTransferFrom(msg.sender, commissionWallet, 4*(10**6));\n        if(referrer != address(0)){\n            distributeReward(referrer, 25*(10**6), 0);\n        }else{\n            totalRest += 25*(10**6);\n            // IERC20(coin).safeTransferFrom(msg.sender, address(receiptWallet), 25*(10**6));\n        }\n        // users[msg.sender].registered = true;\n        users[msg.sender].referrer = referrer;\n    }\n\n    function changeCommissionWallet(address _wallet) external {\n        commissionWallet = _wallet;\n    }\n\n    function changeReceiptWallet(address _wallet) external {\n        receiptWallet = _wallet;\n    }\n\n    function distributeReward(address referrer, uint256 amount, uint8 level) internal {\n        if(level>4){\n            totalRest += amount;\n            return;\n        }\n        users[referrer].referralCommission += roundedDivWith2(amount);\n        users[referrer].referralsCount[level]++;\n        if(level == 0){\n            if(users[referrer].referralsCount[level]>=500){\n                if(totalRest>10000){\n                    users[referrer].referralCommission += 10000;\n                    totalRest -= 10000;\n                }                \n            }else if(users[referrer].referralsCount[level]>=300){\n                if(totalRest>500){\n                    users[referrer].referralCommission += 500;\n                    totalRest -= 500;\n                } \n            }else if(users[referrer].referralsCount[level]>=100){\n                if(totalRest>100){\n                    users[referrer].referralCommission += 100;\n                    totalRest -= 100;\n                } \n            }\n        }        \n        level++;\n        if(users[referrer].referrer != address(0))\n            distributeReward(users[referrer].referrer, amount - roundedDivWith2(amount), level);\n        else\n            totalRest += amount - roundedDivWith2(amount);\n    }\n    function roundedDivWith2(uint256 a) pure internal returns(uint256 b){\n        a /= 10**6;\n        b=a-a/2;\n        b *= 10**6;\n    }\n    function withdrawReward() external nonReentrant{\n        uint256 availableAmount = users[msg.sender].referralCommission - users[msg.sender].withdrawnReward;\n        require(availableAmount>0, \"no reward\");\n        IERC20(coin).safeTransfer(msg.sender, availableAmount);\n        users[msg.sender].withdrawnReward = users[msg.sender].referralCommission;\n    }\n    // function withdrawForOwner() external onlyOwner{\n    function withdrawForRecipient() external isReceiptWallet{   \n        IERC20(coin).safeTransfer(receiptWallet, IERC20(coin).balanceOf(address(this)));\n        totalRest = 0;\n    }\n    function getUser(address _user) external view returns (\n        bool registered,\n        address referrer,\n        uint256 referralCommission,\n        uint256 withdrawnReward,\n        uint256[5] memory referralsCount\n    ){\n        registered = users[_user].registered;\n        referrer = users[_user].referrer;\n        referralCommission = users[_user].referralCommission;\n        withdrawnReward = users[_user].withdrawnReward;\n        for(uint8 i=0;i<5;i++){\n            referralsCount[i] = users[_user].referralsCount[i];\n        }\n    }\n}",
  "sourcePath": "F:/solacrypt/mlm_referral/contracts/MLM.sol",
  "compiler": {
    "name": "solc",
    "version": "0.8.0+commit.7c2e6412.Emscripten.clang"
  },
  "schemaVersion": "2.0.1",
  "updatedAt": "2023-11-04T09:07:05.712Z"
}